{
  "contractName": "admined",
  "abi": [
    {
      "constant": false,
      "inputs": [
        {
          "name": "newAdmin",
          "type": "address"
        }
      ],
      "name": "transferAdmin",
      "outputs": [],
      "payable": false,
      "stateMutability": "nonpayable",
      "type": "function"
    },
    {
      "constant": true,
      "inputs": [],
      "name": "admin",
      "outputs": [
        {
          "name": "",
          "type": "address"
        }
      ],
      "payable": false,
      "stateMutability": "view",
      "type": "function"
    },
    {
      "inputs": [],
      "payable": false,
      "stateMutability": "nonpayable",
      "type": "constructor"
    }
  ],
  "bytecode": "0x6060604052341561000f57600080fd5b336000806101000a81548173ffffffffffffffffffffffffffffffffffffffff021916908373ffffffffffffffffffffffffffffffffffffffff1602179055506101ce8061005e6000396000f30060606040526004361061004c576000357c0100000000000000000000000000000000000000000000000000000000900463ffffffff16806375829def14610051578063f851a4401461008a575b600080fd5b341561005c57600080fd5b610088600480803573ffffffffffffffffffffffffffffffffffffffff169060200190919050506100df565b005b341561009557600080fd5b61009d61017d565b604051808273ffffffffffffffffffffffffffffffffffffffff1673ffffffffffffffffffffffffffffffffffffffff16815260200191505060405180910390f35b6000809054906101000a900473ffffffffffffffffffffffffffffffffffffffff1673ffffffffffffffffffffffffffffffffffffffff163373ffffffffffffffffffffffffffffffffffffffff1614151561013a57600080fd5b806000806101000a81548173ffffffffffffffffffffffffffffffffffffffff021916908373ffffffffffffffffffffffffffffffffffffffff16021790555050565b6000809054906101000a900473ffffffffffffffffffffffffffffffffffffffff16815600a165627a7a723058206160a1d1e3245d778e27c1b4665463ebbd960db4f72aaeea20b64a62994039dd0029",
  "source": "pragma solidity^0.4.19;\n//import '/node_modules/zeppelin-solidity/contracts/token/ERC20/MintableToken.sol';\n//import './SafeMath.sol';\ncontract Token{//base\n\tmapping(address => uint256) public BalanceOf;\n\tstring public name;\n\tstring public symbol;\n\tuint8 public decimal;\n\tuint256 public totalSupply;\n\tevent Transfer(address indexedFrom, address indexedTo, uint256 value);\n\t function Token  (uint256 initialSupply, string tokenName, string tokenSymbol, uint8 decimalUnits)public{\n\t\tBalanceOf[msg.sender] = initialSupply;\n\t\ttotalSupply = initialSupply;\n\t\tdecimal = decimalUnits;\n\t\tsymbol = tokenSymbol;\n\n\t\tname = tokenName;\n\t\n\t}\n\t\n\tfunction transfer(address _to, uint256 _value)public{\n\t    require(BalanceOf[msg.sender] >_value);\n\t\t//if(BalanceOf[msg.sender] < _value) throw;\n\t\trequire(BalanceOf[_to]+ _value > BalanceOf[_to]);\n\t//\tif(BalanceOf[_to] + _value < BalanceOf[_to]) throw;\n\t\t\n\t\tBalanceOf[msg.sender] -=_value;\n\t\tBalanceOf[_to] += _value;\n\t\tTransfer(msg.sender, _to, _value);\n}\n}\ncontract admined{\n\taddress public admin;\n\tfunction admined()public{\n\t\tadmin = msg.sender;\n\t}\n\tmodifier OnlyAdmin(){\n\t    require(msg.sender == admin);\n\t\t//if(msg.sender != admin) throw;\n\t\t_;\n\t}\n\t\n\tfunction transferAdmin(address newAdmin) OnlyAdmin()public{\n\t\tadmin = newAdmin;\n\t}\n}\n\ncontract preIcoAmToken is admined, Token{\n\tfunction preIcoAmToken(uint256 _initialSupply, string _name, string _symbol, uint8 _decimal, address centralAdmin) Token(0, _name, _symbol, _decimal)public{\n\t\ttotalSupply = _initialSupply;\n\t\tif (centralAdmin != 0){\n\t\t\tadmin = centralAdmin;\n\t\t}\n\t\telse{\n\t\t\tadmin = msg.sender;\n\t\t}\n}\n\t\t\n\tfunction mintToken(address target, uint256 mintedAmount) OnlyAdmin public{\n\t\tBalanceOf[target] += mintedAmount;\n\t\ttotalSupply += mintedAmount;\n\t\tTransfer(0,this, mintedAmount);\n\t\tTransfer(this, target, mintedAmount);\n}\nfunction() payable { }\n\t/*function(address _to, uint256 _value) public{\n\t\trequire(BalanceOf[msg.sender] >= _value);\n\t\t\n\t\t//if(BalanceOf[msg.sender]< _value) thrw;\n\t\trequire(BalanceOf[msg.sender] > 0);\n\t\t//if(BalanceOf[msg.sender] < 0) throw;\n\t\t\n\t\tBalanceOf[msg.sender] -=_value;\n\t\tBalanceOf[_to] += _value;\n\t\t\n\t\tTransfer(msg.sender, _to, _value);\n\n}*/\n\n\n}\n\n\n\n",
  "sourcePath": "/home/robot-tumas/amLearnIcoRoot/contracts/amToken.sol",
  "compiler": {
    "name": "solc",
    "version": "0.4.19+commit.c4cbbb05.Emscripten.clang"
  },
  "schemaVersion": "2.0.0",
  "updatedAt": "2018-03-26T00:21:22.171Z"
}