{
  "contractName": "CrowdSale",
  "abi": [
    {
      "constant": true,
      "inputs": [],
      "name": "creator",
      "outputs": [
        {
          "name": "",
          "type": "address"
        }
      ],
      "payable": false,
      "stateMutability": "view",
      "type": "function"
    },
    {
      "constant": true,
      "inputs": [],
      "name": "deadline",
      "outputs": [
        {
          "name": "",
          "type": "uint256"
        }
      ],
      "payable": false,
      "stateMutability": "view",
      "type": "function"
    },
    {
      "constant": true,
      "inputs": [],
      "name": "completedAt",
      "outputs": [
        {
          "name": "",
          "type": "uint256"
        }
      ],
      "payable": false,
      "stateMutability": "view",
      "type": "function"
    },
    {
      "constant": true,
      "inputs": [],
      "name": "beneficiary",
      "outputs": [
        {
          "name": "",
          "type": "address"
        }
      ],
      "payable": false,
      "stateMutability": "view",
      "type": "function"
    },
    {
      "constant": true,
      "inputs": [],
      "name": "priceInWei",
      "outputs": [
        {
          "name": "",
          "type": "uint256"
        }
      ],
      "payable": false,
      "stateMutability": "view",
      "type": "function"
    },
    {
      "constant": true,
      "inputs": [],
      "name": "tokenReward",
      "outputs": [
        {
          "name": "",
          "type": "address"
        }
      ],
      "payable": false,
      "stateMutability": "view",
      "type": "function"
    },
    {
      "constant": true,
      "inputs": [],
      "name": "fundingMinimumTargetInWei",
      "outputs": [
        {
          "name": "",
          "type": "uint256"
        }
      ],
      "payable": false,
      "stateMutability": "view",
      "type": "function"
    },
    {
      "constant": true,
      "inputs": [],
      "name": "fundingMaximumTargetInWei",
      "outputs": [
        {
          "name": "",
          "type": "uint256"
        }
      ],
      "payable": false,
      "stateMutability": "view",
      "type": "function"
    },
    {
      "constant": true,
      "inputs": [],
      "name": "state",
      "outputs": [
        {
          "name": "",
          "type": "uint8"
        }
      ],
      "payable": false,
      "stateMutability": "view",
      "type": "function"
    },
    {
      "constant": false,
      "inputs": [],
      "name": "payOut",
      "outputs": [],
      "payable": false,
      "stateMutability": "nonpayable",
      "type": "function"
    },
    {
      "constant": true,
      "inputs": [],
      "name": "totalRaised",
      "outputs": [
        {
          "name": "",
          "type": "uint256"
        }
      ],
      "payable": false,
      "stateMutability": "view",
      "type": "function"
    },
    {
      "constant": true,
      "inputs": [],
      "name": "currentBalance",
      "outputs": [
        {
          "name": "",
          "type": "uint256"
        }
      ],
      "payable": false,
      "stateMutability": "view",
      "type": "function"
    },
    {
      "constant": false,
      "inputs": [],
      "name": "contribute",
      "outputs": [
        {
          "name": "",
          "type": "uint256"
        }
      ],
      "payable": true,
      "stateMutability": "payable",
      "type": "function"
    },
    {
      "constant": false,
      "inputs": [],
      "name": "removeContract",
      "outputs": [],
      "payable": false,
      "stateMutability": "nonpayable",
      "type": "function"
    },
    {
      "inputs": [
        {
          "name": "_timeInMinutesForFundraising",
          "type": "uint256"
        },
        {
          "name": "_campaignUrl",
          "type": "string"
        },
        {
          "name": "_ifSuccessfulSendTo",
          "type": "address"
        },
        {
          "name": "_fundingMinimumTargetInEther",
          "type": "uint256"
        },
        {
          "name": "_fundingMaximumTargetInEther",
          "type": "uint256"
        },
        {
          "name": "_addressOfTokenUsedAsReward",
          "type": "address"
        },
        {
          "name": "_etherCostOfEachToken",
          "type": "uint256"
        }
      ],
      "payable": false,
      "stateMutability": "nonpayable",
      "type": "constructor"
    },
    {
      "payable": false,
      "stateMutability": "nonpayable",
      "type": "fallback"
    },
    {
      "anonymous": false,
      "inputs": [
        {
          "indexed": false,
          "name": "addr",
          "type": "address"
        },
        {
          "indexed": false,
          "name": "amount",
          "type": "uint256"
        },
        {
          "indexed": false,
          "name": "currentTotal",
          "type": "uint256"
        }
      ],
      "name": "LogFundingReceived",
      "type": "event"
    },
    {
      "anonymous": false,
      "inputs": [
        {
          "indexed": false,
          "name": "winnerAddress",
          "type": "address"
        }
      ],
      "name": "LogWinnerPaid",
      "type": "event"
    },
    {
      "anonymous": false,
      "inputs": [
        {
          "indexed": false,
          "name": "totalRaised",
          "type": "uint256"
        }
      ],
      "name": "LogFundingSuccessful",
      "type": "event"
    },
    {
      "anonymous": false,
      "inputs": [
        {
          "indexed": false,
          "name": "creator",
          "type": "address"
        },
        {
          "indexed": false,
          "name": "beneficiary",
          "type": "address"
        },
        {
          "indexed": false,
          "name": "url",
          "type": "string"
        },
        {
          "indexed": false,
          "name": "_fundingMaximumTargetInEther",
          "type": "uint256"
        },
        {
          "indexed": false,
          "name": "deadline",
          "type": "uint256"
        }
      ],
      "name": "LogFunderInitialized",
      "type": "event"
    }
  ],
  "bytecode": "0x606060405260008060006101000a81548160ff0219169083600281111561002257fe5b0217905550341561003257600080fd5b604051610e59380380610e598339810160405280805190602001909190805182019190602001805190602001909190805190602001909190805190602001909190805190602001909190805190602001909190505033600a60006101000a81548173ffffffffffffffffffffffffffffffffffffffff021916908373ffffffffffffffffffffffffffffffffffffffff16021790555084600b60006101000a81548173ffffffffffffffffffffffffffffffffffffffff021916908373ffffffffffffffffffffffffffffffffffffffff16021790555085600c908051906020019061011f92919061032e565b50670de0b6b3a76400008402600781905550670de0b6b3a76400008302600881905550603c87024201600481905550600060038190555081600960006101000a81548173ffffffffffffffffffffffffffffffffffffffff021916908373ffffffffffffffffffffffffffffffffffffffff160217905550670de0b6b3a764000081026006819055507f8162f6314365078618b76691719ca4f4c7ab1b30cd94a9f1e2bd2fffb3958e67600a60009054906101000a900473ffffffffffffffffffffffffffffffffffffffff16600b60009054906101000a900473ffffffffffffffffffffffffffffffffffffffff16600c600854600454604051808673ffffffffffffffffffffffffffffffffffffffff1673ffffffffffffffffffffffffffffffffffffffff1681526020018573ffffffffffffffffffffffffffffffffffffffff1673ffffffffffffffffffffffffffffffffffffffff168152602001806020018481526020018381526020018281038252858181546001816001161561010002031660029004815260200191508054600181600116156101000203166002900480156103105780601f106102e557610100808354040283529160200191610310565b820191906000526020600020905b8154815290600101906020018083116102f357829003601f168201915b5050965050505050505060405180910390a1505050505050506103d3565b828054600181600116156101000203166002900490600052602060002090601f016020900481019282601f1061036f57805160ff191683800117855561039d565b8280016001018555821561039d579182015b8281111561039c578251825591602001919060010190610381565b5b5090506103aa91906103ae565b5090565b6103d091905b808211156103cc5760008160009055506001016103b4565b5090565b90565b610a77806103e26000396000f3006060604052600436106100d0576000357c0100000000000000000000000000000000000000000000000000000000900463ffffffff16806302d05d3f146100e057806329dcb0cf14610135578063387712421461015e57806338af3eed146101875780633c8da588146101dc5780636e66f6e91461020557806371ae8f021461025a578063aa36766414610283578063c19d93fb146102ac578063c2052403146102e3578063c5c4744c146102f8578063ce845d1d14610321578063d7bb99ba1461034a578063fe389e0914610368575b34156100db57600080fd5b600080fd5b34156100eb57600080fd5b6100f361037d565b604051808273ffffffffffffffffffffffffffffffffffffffff1673ffffffffffffffffffffffffffffffffffffffff16815260200191505060405180910390f35b341561014057600080fd5b6101486103a3565b6040518082815260200191505060405180910390f35b341561016957600080fd5b6101716103a9565b6040518082815260200191505060405180910390f35b341561019257600080fd5b61019a6103af565b604051808273ffffffffffffffffffffffffffffffffffffffff1673ffffffffffffffffffffffffffffffffffffffff16815260200191505060405180910390f35b34156101e757600080fd5b6101ef6103d5565b6040518082815260200191505060405180910390f35b341561021057600080fd5b6102186103db565b604051808273ffffffffffffffffffffffffffffffffffffffff1673ffffffffffffffffffffffffffffffffffffffff16815260200191505060405180910390f35b341561026557600080fd5b61026d610401565b6040518082815260200191505060405180910390f35b341561028e57600080fd5b610296610407565b6040518082815260200191505060405180910390f35b34156102b757600080fd5b6102bf61040d565b604051808260028111156102cf57fe5b60ff16815260200191505060405180910390f35b34156102ee57600080fd5b6102f661041f565b005b341561030357600080fd5b61030b61057f565b6040518082815260200191505060405180910390f35b341561032c57600080fd5b610334610585565b6040518082815260200191505060405180910390f35b61035261058b565b6040518082815260200191505060405180910390f35b341561037357600080fd5b61037b610912565b005b600a60009054906101000a900473ffffffffffffffffffffffffffffffffffffffff1681565b60045481565b60055481565b600b60009054906101000a900473ffffffffffffffffffffffffffffffffffffffff1681565b60065481565b600960009054906101000a900473ffffffffffffffffffffffffffffffffffffffff1681565b60075481565b60085481565b6000809054906101000a900460ff1681565b600180600281111561042d57fe5b6000809054906101000a900460ff16600281111561044757fe5b14151561045357600080fd5b600b60009054906101000a900473ffffffffffffffffffffffffffffffffffffffff1673ffffffffffffffffffffffffffffffffffffffff166108fc3073ffffffffffffffffffffffffffffffffffffffff16319081150290604051600060405180830381858888f1935050505015156104cc57600080fd5b60026000806101000a81548160ff021916908360028111156104ea57fe5b021790555060006003819055507fcc2a9192e91e4dd58845fd890b297de7bfda33e9f07f14bb2e4fe2237c86723d600b60009054906101000a900473ffffffffffffffffffffffffffffffffffffffff16604051808273ffffffffffffffffffffffffffffffffffffffff1673ffffffffffffffffffffffffffffffffffffffff16815260200191505060405180910390a150565b60025481565b60035481565b600080600080600281111561059c57fe5b6000809054906101000a900460ff1660028111156105b657fe5b1415156105c257600080fd5b600654341115156105d257600080fd5b6000600654348115156105e157fe5b061415156105ee57600080fd5b3491506001805480600101828161060591906109cb565b9160005260206000209060020201600060408051908101604052803481526020013373ffffffffffffffffffffffffffffffffffffffff1681525090919091506000820151816000015560208201518160010160006101000a81548173ffffffffffffffffffffffffffffffffffffffff021916908373ffffffffffffffffffffffffffffffffffffffff1602179055505050503460026000828254019250508190555060025460038190555060006008541415156107a857600960009054906101000a900473ffffffffffffffffffffffffffffffffffffffff1673ffffffffffffffffffffffffffffffffffffffff1663a9059cbb336006548581151561070a57fe5b046040518363ffffffff167c0100000000000000000000000000000000000000000000000000000000028152600401808373ffffffffffffffffffffffffffffffffffffffff1673ffffffffffffffffffffffffffffffffffffffff16815260200182815260200192505050600060405180830381600087803b151561078f57600080fd5b6102c65a03f115156107a057600080fd5b50505061088e565b600960009054906101000a900473ffffffffffffffffffffffffffffffffffffffff1673ffffffffffffffffffffffffffffffffffffffff166379c6506833600654858115156107f457fe5b046040518363ffffffff167c0100000000000000000000000000000000000000000000000000000000028152600401808373ffffffffffffffffffffffffffffffffffffffff1673ffffffffffffffffffffffffffffffffffffffff16815260200182815260200192505050600060405180830381600087803b151561087957600080fd5b6102c65a03f1151561088a57600080fd5b5050505b7f304e48bb03eae5e9bf3575d270648664895983e116a51773a65e9f3341b3b40e3334600254604051808473ffffffffffffffffffffffffffffffffffffffff1673ffffffffffffffffffffffffffffffffffffffff168152602001838152602001828152602001935050505060405180910390a160018080549050039250505090565b600a60009054906101000a900473ffffffffffffffffffffffffffffffffffffffff1673ffffffffffffffffffffffffffffffffffffffff163373ffffffffffffffffffffffffffffffffffffffff1614151561096e57600080fd5b6001600281111561097b57fe5b6000809054906101000a900460ff16600281111561099557fe5b1480156109a7575042610e1060055401105b15156109b257600080fd5b3373ffffffffffffffffffffffffffffffffffffffff16ff5b8154818355818115116109f8576002028160020283600052602060002091820191016109f791906109fd565b5b505050565b610a4891905b80821115610a44576000808201600090556001820160006101000a81549073ffffffffffffffffffffffffffffffffffffffff021916905550600201610a03565b5090565b905600a165627a7a723058202c57317c4194f9848d0cc01748cc7aaf0336ffaa95804702b320d06fdda296ca0029",
  "source": "pragma solidity^0.4.19;\n\n\ncontract token { function transfer(address receiver, uint amount) public ;\n                 function mintToken(address target, uint mintedAmount) public ;\n                }\n\ncontract CrowdSale {\n    enum State {\n        Fundraising,\n        Successful,\n        Closed\n    }\n    State public state = State.Fundraising;\n\n    struct Contribution {\n        uint amount;\n        address contributor;\n    }\n    Contribution[] contributions;\n\n    \n    \n    uint public totalRaised;\n    uint public currentBalance;\n    uint public deadline;\n    uint public completedAt;\n    uint public priceInWei;\n    uint public fundingMinimumTargetInWei; \n    uint public fundingMaximumTargetInWei; \n    token public tokenReward;\n    address public creator;\n    address public beneficiary; \n    string campaignUrl;\n    byte constant version = \"1\";\n\n    \n    event LogFundingReceived(address addr, uint amount, uint currentTotal);\n    event LogWinnerPaid(address winnerAddress);\n    event LogFundingSuccessful(uint totalRaised);\n    event LogFunderInitialized(\n        address creator,\n        address beneficiary,\n        string url,\n        uint _fundingMaximumTargetInEther, \n        uint256 deadline);\n\n\n    modifier inState(State _state) {\n        require(state == _state) ;\n        _;\n    }\n\n     modifier isMinimum() {\n        require(msg.value > priceInWei) ;\n        _;\n    }\n\n    modifier inMultipleOfPrice() {\n        require(msg.value%priceInWei == 0) ;\n        _;\n    }\n\n    modifier isCreator() {\n        require(msg.sender == creator) ;\n        _;\n    }\n\n    \n    modifier atEndOfLifecycle() {\n        if(!((state == State.Successful) && completedAt + 1 hours < now)) {\n            revert();\n        }\n        _;\n    }\n\n    \n    function CrowdSale(\n        uint _timeInMinutesForFundraising,\n        string _campaignUrl,\n        address _ifSuccessfulSendTo,\n        uint _fundingMinimumTargetInEther,\n        uint _fundingMaximumTargetInEther,\n        token _addressOfTokenUsedAsReward,\n        uint _etherCostOfEachToken) public\n    {\n        creator = msg.sender;\n        beneficiary = _ifSuccessfulSendTo;\n        campaignUrl = _campaignUrl;\n        fundingMinimumTargetInWei = _fundingMinimumTargetInEther * 1 ether; \n        fundingMaximumTargetInWei = _fundingMaximumTargetInEther * 1 ether; \n        deadline = now + (_timeInMinutesForFundraising * 1 minutes);\n        currentBalance = 0;\n        tokenReward = token(_addressOfTokenUsedAsReward);\n        priceInWei = _etherCostOfEachToken * 1 ether;\n        LogFunderInitialized(\n            creator,\n            beneficiary,\n            campaignUrl,\n            fundingMaximumTargetInWei,\n            deadline);\n    }\n\n    function contribute()\n    public\n    inState(State.Fundraising) isMinimum() inMultipleOfPrice() payable returns (uint256)\n    {\n        uint256 amountInWei = msg.value;\n\n        \n        contributions.push(\n            Contribution({\n                amount: msg.value,\n                contributor: msg.sender\n                }) \n            );\n\n        totalRaised += msg.value;\n        currentBalance = totalRaised;\n\n\n        if(fundingMaximumTargetInWei != 0){\n            \n            tokenReward.transfer(msg.sender, amountInWei / priceInWei);\n        }\n        else{\n            tokenReward.mintToken(msg.sender, amountInWei / priceInWei);\n        }\n\n        LogFundingReceived(msg.sender, msg.value, totalRaised);\n\n        \n\n        return contributions.length - 1; \n    }\n\n    \n    \n\n        function payOut()\n        public\n        inState(State.Successful)\n        {\n            \n            if(!beneficiary.send(this.balance)) {\n                revert();\n            }\n\n            state = State.Closed;\n            currentBalance = 0;\n            LogWinnerPaid(beneficiary);\n        }\n\n        \n\n        function removeContract()\n        public\n        isCreator()\n        atEndOfLifecycle()\n        {\n            selfdestruct(msg.sender);\n            \n        }\n\n        function () public { revert(); }\n}\n",
  "sourcePath": "/home/robot-tumas/amLearnIcoRoot/contracts/amTokenCrowdsale.sol",
  "compiler": {
    "name": "solc",
    "version": "0.4.19+commit.c4cbbb05.Emscripten.clang"
  },
  "schemaVersion": "2.0.0",
  "updatedAt": "2018-03-26T00:21:22.173Z"
}