{
  "contractName": "preIcoAmToken",
  "abi": [
    {
      "constant": true,
      "inputs": [],
      "name": "name",
      "outputs": [
        {
          "name": "",
          "type": "string"
        }
      ],
      "payable": false,
      "stateMutability": "view",
      "type": "function"
    },
    {
      "constant": true,
      "inputs": [],
      "name": "totalSupply",
      "outputs": [
        {
          "name": "",
          "type": "uint256"
        }
      ],
      "payable": false,
      "stateMutability": "view",
      "type": "function"
    },
    {
      "constant": false,
      "inputs": [
        {
          "name": "newAdmin",
          "type": "address"
        }
      ],
      "name": "transferAdmin",
      "outputs": [],
      "payable": false,
      "stateMutability": "nonpayable",
      "type": "function"
    },
    {
      "constant": true,
      "inputs": [],
      "name": "decimal",
      "outputs": [
        {
          "name": "",
          "type": "uint8"
        }
      ],
      "payable": false,
      "stateMutability": "view",
      "type": "function"
    },
    {
      "constant": false,
      "inputs": [
        {
          "name": "target",
          "type": "address"
        },
        {
          "name": "mintedAmount",
          "type": "uint256"
        }
      ],
      "name": "mintToken",
      "outputs": [],
      "payable": false,
      "stateMutability": "nonpayable",
      "type": "function"
    },
    {
      "constant": true,
      "inputs": [],
      "name": "symbol",
      "outputs": [
        {
          "name": "",
          "type": "string"
        }
      ],
      "payable": false,
      "stateMutability": "view",
      "type": "function"
    },
    {
      "constant": true,
      "inputs": [
        {
          "name": "",
          "type": "address"
        }
      ],
      "name": "BalanceOf",
      "outputs": [
        {
          "name": "",
          "type": "uint256"
        }
      ],
      "payable": false,
      "stateMutability": "view",
      "type": "function"
    },
    {
      "constant": true,
      "inputs": [],
      "name": "admin",
      "outputs": [
        {
          "name": "",
          "type": "address"
        }
      ],
      "payable": false,
      "stateMutability": "view",
      "type": "function"
    },
    {
      "inputs": [
        {
          "name": "_initialSupply",
          "type": "uint256"
        },
        {
          "name": "_name",
          "type": "string"
        },
        {
          "name": "_symbol",
          "type": "string"
        },
        {
          "name": "_decimal",
          "type": "uint8"
        },
        {
          "name": "centralAdmin",
          "type": "address"
        }
      ],
      "payable": false,
      "stateMutability": "nonpayable",
      "type": "constructor"
    },
    {
      "payable": true,
      "stateMutability": "payable",
      "type": "fallback"
    },
    {
      "anonymous": false,
      "inputs": [
        {
          "indexed": false,
          "name": "indexedFrom",
          "type": "address"
        },
        {
          "indexed": false,
          "name": "indexedTo",
          "type": "address"
        },
        {
          "indexed": false,
          "name": "value",
          "type": "uint256"
        }
      ],
      "name": "Transfer",
      "type": "event"
    },
    {
      "constant": false,
      "inputs": [
        {
          "name": "_to",
          "type": "address"
        },
        {
          "name": "_value",
          "type": "uint256"
        }
      ],
      "name": "transfer",
      "outputs": [],
      "payable": false,
      "stateMutability": "nonpayable",
      "type": "function"
    }
  ],
  "bytecode": "0x6060604052341561000f57600080fd5b604051610c61380380610c61833981016040528080519060200190919080518201919060200180518201919060200180519060200190919080519060200190919050506000848484336000806101000a81548173ffffffffffffffffffffffffffffffffffffffff021916908373ffffffffffffffffffffffffffffffffffffffff16021790555083600160003373ffffffffffffffffffffffffffffffffffffffff1673ffffffffffffffffffffffffffffffffffffffff168152602001908152602001600020819055508360058190555080600460006101000a81548160ff021916908360ff16021790555081600390805190602001906101139291906101e6565b50826002908051906020019061012a9291906101e6565b50505050508460058190555060008173ffffffffffffffffffffffffffffffffffffffff1614151561019b57806000806101000a81548173ffffffffffffffffffffffffffffffffffffffff021916908373ffffffffffffffffffffffffffffffffffffffff1602179055506101dc565b336000806101000a81548173ffffffffffffffffffffffffffffffffffffffff021916908373ffffffffffffffffffffffffffffffffffffffff1602179055505b505050505061028b565b828054600181600116156101000203166002900490600052602060002090601f016020900481019282601f1061022757805160ff1916838001178555610255565b82800160010185558215610255579182015b82811115610254578251825591602001919060010190610239565b5b5090506102629190610266565b5090565b61028891905b8082111561028457600081600090555060010161026c565b5090565b90565b6109c78061029a6000396000f300606060405260043610610099576000357c0100000000000000000000000000000000000000000000000000000000900463ffffffff16806306fdde031461009b57806318160ddd1461012957806375829def1461015257806376809ce31461018b57806379c65068146101ba57806395d89b41146101fc578063a9059cbb1461028a578063d9967889146102cc578063f851a44014610319575b005b34156100a657600080fd5b6100ae61036e565b6040518080602001828103825283818151815260200191508051906020019080838360005b838110156100ee5780820151818401526020810190506100d3565b50505050905090810190601f16801561011b5780820380516001836020036101000a031916815260200191505b509250505060405180910390f35b341561013457600080fd5b61013c61040c565b6040518082815260200191505060405180910390f35b341561015d57600080fd5b610189600480803573ffffffffffffffffffffffffffffffffffffffff16906020019091905050610412565b005b341561019657600080fd5b61019e6104b0565b604051808260ff1660ff16815260200191505060405180910390f35b34156101c557600080fd5b6101fa600480803573ffffffffffffffffffffffffffffffffffffffff169060200190919080359060200190919050506104c3565b005b341561020757600080fd5b61020f6106a8565b6040518080602001828103825283818151815260200191508051906020019080838360005b8381101561024f578082015181840152602081019050610234565b50505050905090810190601f16801561027c5780820380516001836020036101000a031916815260200191505b509250505060405180910390f35b341561029557600080fd5b6102ca600480803573ffffffffffffffffffffffffffffffffffffffff16906020019091908035906020019091905050610746565b005b34156102d757600080fd5b610303600480803573ffffffffffffffffffffffffffffffffffffffff1690602001909190505061095e565b6040518082815260200191505060405180910390f35b341561032457600080fd5b61032c610976565b604051808273ffffffffffffffffffffffffffffffffffffffff1673ffffffffffffffffffffffffffffffffffffffff16815260200191505060405180910390f35b60028054600181600116156101000203166002900480601f0160208091040260200160405190810160405280929190818152602001828054600181600116156101000203166002900480156104045780601f106103d957610100808354040283529160200191610404565b820191906000526020600020905b8154815290600101906020018083116103e757829003601f168201915b505050505081565b60055481565b6000809054906101000a900473ffffffffffffffffffffffffffffffffffffffff1673ffffffffffffffffffffffffffffffffffffffff163373ffffffffffffffffffffffffffffffffffffffff1614151561046d57600080fd5b806000806101000a81548173ffffffffffffffffffffffffffffffffffffffff021916908373ffffffffffffffffffffffffffffffffffffffff16021790555050565b600460009054906101000a900460ff1681565b6000809054906101000a900473ffffffffffffffffffffffffffffffffffffffff1673ffffffffffffffffffffffffffffffffffffffff163373ffffffffffffffffffffffffffffffffffffffff1614151561051e57600080fd5b80600160008473ffffffffffffffffffffffffffffffffffffffff1673ffffffffffffffffffffffffffffffffffffffff16815260200190815260200160002060008282540192505081905550806005600082825401925050819055507fddf252ad1be2c89b69c2b068fc378daa952ba7f163c4a11628f55a4df523b3ef60003083604051808473ffffffffffffffffffffffffffffffffffffffff1681526020018373ffffffffffffffffffffffffffffffffffffffff1673ffffffffffffffffffffffffffffffffffffffff168152602001828152602001935050505060405180910390a17fddf252ad1be2c89b69c2b068fc378daa952ba7f163c4a11628f55a4df523b3ef308383604051808473ffffffffffffffffffffffffffffffffffffffff1673ffffffffffffffffffffffffffffffffffffffff1681526020018373ffffffffffffffffffffffffffffffffffffffff1673ffffffffffffffffffffffffffffffffffffffff168152602001828152602001935050505060405180910390a15050565b60038054600181600116156101000203166002900480601f01602080910402602001604051908101604052809291908181526020018280546001816001161561010002031660029004801561073e5780601f106107135761010080835404028352916020019161073e565b820191906000526020600020905b81548152906001019060200180831161072157829003601f168201915b505050505081565b80600160003373ffffffffffffffffffffffffffffffffffffffff1673ffffffffffffffffffffffffffffffffffffffff1681526020019081526020016000205411151561079357600080fd5b600160008373ffffffffffffffffffffffffffffffffffffffff1673ffffffffffffffffffffffffffffffffffffffff1681526020019081526020016000205481600160008573ffffffffffffffffffffffffffffffffffffffff1673ffffffffffffffffffffffffffffffffffffffff168152602001908152602001600020540111151561082157600080fd5b80600160003373ffffffffffffffffffffffffffffffffffffffff1673ffffffffffffffffffffffffffffffffffffffff1681526020019081526020016000206000828254039250508190555080600160008473ffffffffffffffffffffffffffffffffffffffff1673ffffffffffffffffffffffffffffffffffffffff168152602001908152602001600020600082825401925050819055507fddf252ad1be2c89b69c2b068fc378daa952ba7f163c4a11628f55a4df523b3ef338383604051808473ffffffffffffffffffffffffffffffffffffffff1673ffffffffffffffffffffffffffffffffffffffff1681526020018373ffffffffffffffffffffffffffffffffffffffff1673ffffffffffffffffffffffffffffffffffffffff168152602001828152602001935050505060405180910390a15050565b60016020528060005260406000206000915090505481565b6000809054906101000a900473ffffffffffffffffffffffffffffffffffffffff16815600a165627a7a72305820df842111b5d5d2136af9f5eff3850192739c9b2774528ecdf045c8b3e66672e00029",
  "source": "pragma solidity^0.4.19;\n//import '/node_modules/zeppelin-solidity/contracts/token/ERC20/MintableToken.sol';\n//import './SafeMath.sol';\ncontract Token{//base\n\tmapping(address => uint256) public BalanceOf;\n\tstring public name;\n\tstring public symbol;\n\tuint8 public decimal;\n\tuint256 public totalSupply;\n\tevent Transfer(address indexedFrom, address indexedTo, uint256 value);\n\t function Token  (uint256 initialSupply, string tokenName, string tokenSymbol, uint8 decimalUnits)public{\n\t\tBalanceOf[msg.sender] = initialSupply;\n\t\ttotalSupply = initialSupply;\n\t\tdecimal = decimalUnits;\n\t\tsymbol = tokenSymbol;\n\n\t\tname = tokenName;\n\t\n\t}\n\t\n\tfunction transfer(address _to, uint256 _value)public{\n\t    require(BalanceOf[msg.sender] >_value);\n\t\t//if(BalanceOf[msg.sender] < _value) throw;\n\t\trequire(BalanceOf[_to]+ _value > BalanceOf[_to]);\n\t//\tif(BalanceOf[_to] + _value < BalanceOf[_to]) throw;\n\t\t\n\t\tBalanceOf[msg.sender] -=_value;\n\t\tBalanceOf[_to] += _value;\n\t\tTransfer(msg.sender, _to, _value);\n}\n}\ncontract admined{\n\taddress public admin;\n\tfunction admined()public{\n\t\tadmin = msg.sender;\n\t}\n\tmodifier OnlyAdmin(){\n\t    require(msg.sender == admin);\n\t\t//if(msg.sender != admin) throw;\n\t\t_;\n\t}\n\t\n\tfunction transferAdmin(address newAdmin) OnlyAdmin()public{\n\t\tadmin = newAdmin;\n\t}\n}\n\ncontract preIcoAmToken is admined, Token{\n\tfunction preIcoAmToken(uint256 _initialSupply, string _name, string _symbol, uint8 _decimal, address centralAdmin) Token(0, _name, _symbol, _decimal)public{\n\t\ttotalSupply = _initialSupply;\n\t\tif (centralAdmin != 0){\n\t\t\tadmin = centralAdmin;\n\t\t}\n\t\telse{\n\t\t\tadmin = msg.sender;\n\t\t}\n}\n\t\t\n\tfunction mintToken(address target, uint256 mintedAmount) OnlyAdmin public{\n\t\tBalanceOf[target] += mintedAmount;\n\t\ttotalSupply += mintedAmount;\n\t\tTransfer(0,this, mintedAmount);\n\t\tTransfer(this, target, mintedAmount);\n}\nfunction() payable { }\n\t/*function(address _to, uint256 _value) public{\n\t\trequire(BalanceOf[msg.sender] >= _value);\n\t\t\n\t\t//if(BalanceOf[msg.sender]< _value) thrw;\n\t\trequire(BalanceOf[msg.sender] > 0);\n\t\t//if(BalanceOf[msg.sender] < 0) throw;\n\t\t\n\t\tBalanceOf[msg.sender] -=_value;\n\t\tBalanceOf[_to] += _value;\n\t\t\n\t\tTransfer(msg.sender, _to, _value);\n\n}*/\n\n\n}\n\n\n\n",
  "sourcePath": "/home/robot-tumas/amLearnIcoRoot/contracts/amToken.sol",
  "compiler": {
    "name": "solc",
    "version": "0.4.19+commit.c4cbbb05.Emscripten.clang"
  },
  "schemaVersion": "2.0.0",
  "updatedAt": "2018-03-26T00:21:22.172Z"
}